{
  "contractName": "AssociateProfitSplitter",
  "abi": [
    {
      "inputs": [
        {
          "internalType": "address payable",
          "name": "_one",
          "type": "address"
        },
        {
          "internalType": "address payable",
          "name": "_two",
          "type": "address"
        },
        {
          "internalType": "address payable",
          "name": "_three",
          "type": "address"
        }
      ],
      "payable": false,
      "stateMutability": "nonpayable",
      "type": "constructor"
    },
    {
      "payable": true,
      "stateMutability": "payable",
      "type": "fallback"
    },
    {
      "constant": true,
      "inputs": [],
      "name": "balance",
      "outputs": [
        {
          "internalType": "uint256",
          "name": "",
          "type": "uint256"
        }
      ],
      "payable": false,
      "stateMutability": "view",
      "type": "function"
    },
    {
      "constant": false,
      "inputs": [],
      "name": "deposit",
      "outputs": [],
      "payable": true,
      "stateMutability": "payable",
      "type": "function"
    }
  ],
  "bytecode": "0x608060405234801561001057600080fd5b506040516103803803806103808339818101604052606081101561003357600080fd5b81019080805190602001909291908051906020019092919080519060200190929190505050826000806101000a81548173ffffffffffffffffffffffffffffffffffffffff021916908373ffffffffffffffffffffffffffffffffffffffff16021790555081600160006101000a81548173ffffffffffffffffffffffffffffffffffffffff021916908373ffffffffffffffffffffffffffffffffffffffff16021790555080600260006101000a81548173ffffffffffffffffffffffffffffffffffffffff021916908373ffffffffffffffffffffffffffffffffffffffff1602179055505050506102548061012c6000396000f3fe6080604052600436106100295760003560e01c8063b69ef8a814610033578063d0e30db01461005e575b610031610068565b005b34801561003f57600080fd5b50610048610200565b6040518082815260200191505060405180910390f35b610066610068565b005b60006003348161007457fe5b0490506000809054906101000a900473ffffffffffffffffffffffffffffffffffffffff1673ffffffffffffffffffffffffffffffffffffffff166108fc829081150290604051600060405180830381858888f193505050501580156100de573d6000803e3d6000fd5b50600160009054906101000a900473ffffffffffffffffffffffffffffffffffffffff1673ffffffffffffffffffffffffffffffffffffffff166108fc829081150290604051600060405180830381858888f19350505050158015610147573d6000803e3d6000fd5b50600260009054906101000a900473ffffffffffffffffffffffffffffffffffffffff1673ffffffffffffffffffffffffffffffffffffffff166108fc829081150290604051600060405180830381858888f193505050501580156101b0573d6000803e3d6000fd5b503373ffffffffffffffffffffffffffffffffffffffff166108fc6003830234039081150290604051600060405180830381858888f193505050501580156101fc573d6000803e3d6000fd5b5050565b60003073ffffffffffffffffffffffffffffffffffffffff163190509056fea265627a7a723158201e9cf758593866334289ae18efe91cc8f97016d7468db577f878df8bd45b5d3864736f6c634300050c0032",
  "source": "pragma solidity >=0.4.21 <0.6.0;\n\n// lvl 1: equal split\ncontract AssociateProfitSplitter {\n    address payable employee_one;\n    address payable employee_two;\n    address payable employee_three;\n\n    constructor(address payable _one, address payable _two, address payable _three) public {\n        employee_one = _one; // 0x443B02B822a19BB96e64a9A673EdAA4027eD9b62\n        employee_two = _two;  // 0x00786bBE030bB178693687c22ffCE593F51D904c\n        employee_three = _three; // 0x631A3f43ffA216f97B346C3F2C896853290F70bc\n    }\n\n    function balance() public view returns(uint) {\n        return address(this).balance;\n    }\n\n    function deposit() public payable {\n        uint amount = msg.value / 3;\n\n        employee_one.transfer(amount);\n        employee_two.transfer(amount);\n        employee_three.transfer(amount);\n\n        msg.sender.transfer(msg.value - amount * 3);\n    }\n\n    function() external payable {\n        deposit();\n    }\n\n}\n",
  "sourcePath": "/home/will/code/hw-20-solidity/contracts/AssociateProfitSplitter.sol",
  "compiler": {
    "name": "solc",
    "version": "0.5.12+commit.7709ece9.Emscripten.clang"
  },
  "schemaVersion": "3.0.20",
  "updatedAt": "2020-01-14T00:27:52.849Z",
  "devdoc": {
    "methods": {}
  },
  "userdoc": {
    "methods": {}
  }
}