{
  "contractName": "DeferredEquityPlan",
  "abi": [
    {
      "inputs": [
        {
          "internalType": "address payable",
          "name": "_employee",
          "type": "address"
        }
      ],
      "payable": false,
      "stateMutability": "nonpayable",
      "type": "constructor"
    },
    {
      "payable": true,
      "stateMutability": "payable",
      "type": "fallback"
    },
    {
      "constant": true,
      "inputs": [],
      "name": "distributed_shares",
      "outputs": [
        {
          "internalType": "uint256",
          "name": "",
          "type": "uint256"
        }
      ],
      "payable": false,
      "stateMutability": "view",
      "type": "function"
    },
    {
      "constant": false,
      "inputs": [],
      "name": "distribute",
      "outputs": [],
      "payable": false,
      "stateMutability": "nonpayable",
      "type": "function"
    },
    {
      "constant": false,
      "inputs": [],
      "name": "deactivate",
      "outputs": [],
      "payable": false,
      "stateMutability": "nonpayable",
      "type": "function"
    }
  ],
  "bytecode": "0x608060405260018060146101000a81548160ff0219169083151502179055506103e860025560fa600355426004556301e13380420160055534801561004357600080fd5b506040516106843803806106848339818101604052602081101561006657600080fd5b8101908080519060200190929190505050336000806101000a81548173ffffffffffffffffffffffffffffffffffffffff021916908373ffffffffffffffffffffffffffffffffffffffff16021790555080600160006101000a81548173ffffffffffffffffffffffffffffffffffffffff021916908373ffffffffffffffffffffffffffffffffffffffff1602179055505061057c806101086000396000f3fe6080604052600436106100345760003560e01c806351b42b00146100855780639bc717f11461009c578063e4fc6b6d146100c7575b6040517f08c379a00000000000000000000000000000000000000000000000000000000081526004018080602001828103825260238152602001806104d46023913960400191505060405180910390fd5b34801561009157600080fd5b5061009a6100de565b005b3480156100a857600080fd5b506100b16101f8565b6040518082815260200191505060405180910390f35b3480156100d357600080fd5b506100dc6101fe565b005b6000809054906101000a900473ffffffffffffffffffffffffffffffffffffffff1673ffffffffffffffffffffffffffffffffffffffff163373ffffffffffffffffffffffffffffffffffffffff1614806101865750600160009054906101000a900473ffffffffffffffffffffffffffffffffffffffff1673ffffffffffffffffffffffffffffffffffffffff163373ffffffffffffffffffffffffffffffffffffffff16145b6101db576040517f08c379a00000000000000000000000000000000000000000000000000000000081526004018080602001828103825260338152602001806104a16033913960400191505060405180910390fd5b6000600160146101000a81548160ff021916908315150217905550565b60065481565b6000809054906101000a900473ffffffffffffffffffffffffffffffffffffffff1673ffffffffffffffffffffffffffffffffffffffff163373ffffffffffffffffffffffffffffffffffffffff1614806102a65750600160009054906101000a900473ffffffffffffffffffffffffffffffffffffffff1673ffffffffffffffffffffffffffffffffffffffff163373ffffffffffffffffffffffffffffffffffffffff16145b6102fb576040517f08c379a00000000000000000000000000000000000000000000000000000000081526004018080602001828103825260308152602001806104f76030913960400191505060405180910390fd5b60011515600160149054906101000a900460ff16151514610384576040517f08c379a00000000000000000000000000000000000000000000000000000000081526004018080602001828103825260148152602001807f436f6e7472616374206e6f74206163746976652e00000000000000000000000081525060200191505060405180910390fd5b4260055411156103fc576040517f08c379a000000000000000000000000000000000000000000000000000000000815260040180806020018281038252601b8152602001807f5368617265732068617665206e6f74207665737465642079657421000000000081525060200191505060405180910390fd5b60025460065410610458576040517f08c379a00000000000000000000000000000000000000000000000000000000081526004018080602001828103825260218152602001806105276021913960400191505060405180910390fd5b6301e133806005600082825401925050819055506003546301e1338060045442038161048057fe5b04026006819055506103e8600654111561049e576103e86006819055505b56fe596f7520617265206e6f7420617574686f72697a656420746f2064656163746976617465207468697320636f6e74726163742e446f206e6f742073656e6420457468657220746f207468697320636f6e747261637421596f7520617265206e6f7420617574686f72697a656420746f2065786563757465207468697320636f6e74726163742e416c6c207368617265732068617665206265656e2064697374726962757465642ea265627a7a723158206753519e03b259b76d9ad1cd4838486650bfd674289349700e3ffabd79d4a9b464736f6c634300050c0032",
  "source": "pragma solidity >=0.4.21 <0.6.0;\n\n// lvl 3: equity plan\ncontract DeferredEquityPlan {\n    address human_resources;\n\n    address payable employee;\n    bool active = true;\n\n    uint total_shares = 1000;\n    uint annual_distribution = 250; // 1000 shares over 4 years\n\n    uint start_time = now; // contract start time\n    uint unlock_time = now + 365 days; // will increment every year\n\n    uint public distributed_shares; // starts at 0\n\n    constructor(address payable _employee) public {\n        human_resources = msg.sender;\n        employee = _employee;\n    }\n\n    function distribute() public {\n        require(msg.sender == human_resources || msg.sender == employee, \"You are not authorized to execute this contract.\");\n        require(active == true, \"Contract not active.\");\n        require(unlock_time <= now, \"Shares have not vested yet!\");\n        require(distributed_shares < total_shares, \"All shares have been distributed.\");\n\n        unlock_time += 365 days; // lock for another year\n        distributed_shares = (now - start_time) / 365 days * annual_distribution;\n\n        // double check in case the employee does not cash out until after 5+ years\n        if (distributed_shares > 1000) {\n            distributed_shares = 1000;\n        }\n    }\n\n    // human_resources and the employee can deactivate this contract at-will\n    function deactivate() public {\n        require(msg.sender == human_resources || msg.sender == employee, \"You are not authorized to deactivate this contract.\");\n        active = false;\n    }\n\n    function() external payable {\n        revert(\"Do not send Ether to this contract!\");\n    }\n}\n",
  "sourcePath": "/home/will/code/hw-20-solidity/contracts/DeferredEquityPlan.sol",
  "compiler": {
    "name": "solc",
    "version": "0.5.12+commit.7709ece9.Emscripten.clang"
  },
  "schemaVersion": "3.0.20",
  "updatedAt": "2020-01-14T00:20:03.674Z",
  "devdoc": {
    "methods": {}
  },
  "userdoc": {
    "methods": {}
  }
}