{
  "contractName": "TieredProfitSplitter",
  "abi": [
    {
      "inputs": [
        {
          "internalType": "address payable",
          "name": "_one",
          "type": "address"
        },
        {
          "internalType": "address payable",
          "name": "_two",
          "type": "address"
        },
        {
          "internalType": "address payable",
          "name": "_three",
          "type": "address"
        }
      ],
      "payable": false,
      "stateMutability": "nonpayable",
      "type": "constructor"
    },
    {
      "payable": true,
      "stateMutability": "payable",
      "type": "fallback"
    },
    {
      "constant": true,
      "inputs": [],
      "name": "balance",
      "outputs": [
        {
          "internalType": "uint256",
          "name": "",
          "type": "uint256"
        }
      ],
      "payable": false,
      "stateMutability": "view",
      "type": "function"
    },
    {
      "constant": false,
      "inputs": [],
      "name": "deposit",
      "outputs": [],
      "payable": true,
      "stateMutability": "payable",
      "type": "function"
    }
  ],
  "bytecode": "0x608060405234801561001057600080fd5b506040516103c43803806103c48339818101604052606081101561003357600080fd5b81019080805190602001909291908051906020019092919080519060200190929190505050826000806101000a81548173ffffffffffffffffffffffffffffffffffffffff021916908373ffffffffffffffffffffffffffffffffffffffff16021790555081600160006101000a81548173ffffffffffffffffffffffffffffffffffffffff021916908373ffffffffffffffffffffffffffffffffffffffff16021790555080600260006101000a81548173ffffffffffffffffffffffffffffffffffffffff021916908373ffffffffffffffffffffffffffffffffffffffff1602179055505050506102988061012c6000396000f3fe6080604052600436106100295760003560e01c8063b69ef8a814610033578063d0e30db01461005e575b610031610068565b005b34801561003f57600080fd5b50610048610244565b6040518082815260200191505060405180910390f35b610066610068565b005b60006064348161007457fe5b049050600080603c8302905080820191506000809054906101000a900473ffffffffffffffffffffffffffffffffffffffff1673ffffffffffffffffffffffffffffffffffffffff166108fc829081150290604051600060405180830381858888f193505050501580156100ec573d6000803e3d6000fd5b506019830290508082019150600160009054906101000a900473ffffffffffffffffffffffffffffffffffffffff1673ffffffffffffffffffffffffffffffffffffffff166108fc829081150290604051600060405180830381858888f19350505050158015610160573d6000803e3d6000fd5b50600f830290508082019150600260009054906101000a900473ffffffffffffffffffffffffffffffffffffffff1673ffffffffffffffffffffffffffffffffffffffff166108fc829081150290604051600060405180830381858888f193505050501580156101d4573d6000803e3d6000fd5b506000809054906101000a900473ffffffffffffffffffffffffffffffffffffffff1673ffffffffffffffffffffffffffffffffffffffff166108fc8334039081150290604051600060405180830381858888f1935050505015801561023e573d6000803e3d6000fd5b50505050565b60003073ffffffffffffffffffffffffffffffffffffffff163190509056fea265627a7a72315820cfdcde6c718f8b404d6ede647282bce8cef48b7e4fa0c2513a852c44800a7bd264736f6c634300050c0032",
  "source": "pragma solidity ^0.5.0;\n\n// lvl 2: tiered split\ncontract TieredProfitSplitter {\n    address payable employee_one; // ceo\n    address payable employee_two; // cto\n    address payable employee_three; // bob\n\n    constructor(address payable _one, address payable _two, address payable _three) public {\n        employee_one = _one;\n        employee_two = _two;\n        employee_three = _three;\n    }\n\n    // Should always return 0!\n    function balance() public view returns(uint) {\n        return address(this).balance;\n    }\n\n    function deposit() public payable {\n        uint points = msg.value / 100;\n        uint total;\n        uint amount;\n\n        amount = points * 60; // \"60%\" distribution\n        total += amount;\n        employee_one.transfer(amount);\n\n        amount = points * 25; // \"25%\" distribution\n        total += amount;\n        employee_two.transfer(amount);\n\n        amount = points * 15; // \"15%\" distribution\n        total += amount;\n        employee_three.transfer(amount);\n\n        employee_one.transfer(msg.value - total); // ceo gets the remaining wei\n    }\n\n    function() external payable {\n        deposit();\n    }\n}\n",
  "sourcePath": "/home/will/code/hw-20-solidity/contracts/TieredProfitSplitter.sol",
  "compiler": {
    "name": "solc",
    "version": "0.5.12+commit.7709ece9.Emscripten.clang"
  },
  "schemaVersion": "3.0.20",
  "updatedAt": "2020-01-17T21:01:49.366Z",
  "devdoc": {
    "methods": {}
  },
  "userdoc": {
    "methods": {}
  }
}